{
  "contractName": "CourseMarketplace",
  "abi": [
    {
      "inputs": [],
      "stateMutability": "nonpayable",
      "type": "constructor"
    },
    {
      "inputs": [],
      "name": "CourseHasOwner",
      "type": "error"
    },
    {
      "inputs": [],
      "name": "CourseIsNotCreated",
      "type": "error"
    },
    {
      "inputs": [],
      "name": "InvalidState",
      "type": "error"
    },
    {
      "inputs": [],
      "name": "OnlyOwner",
      "type": "error"
    },
    {
      "inputs": [],
      "name": "SenderIsNotCourseOwner",
      "type": "error"
    },
    {
      "inputs": [],
      "name": "isStopped",
      "outputs": [
        {
          "internalType": "bool",
          "name": "",
          "type": "bool"
        }
      ],
      "stateMutability": "view",
      "type": "function",
      "constant": true
    },
    {
      "stateMutability": "payable",
      "type": "receive",
      "payable": true
    },
    {
      "inputs": [
        {
          "internalType": "uint256",
          "name": "amount",
          "type": "uint256"
        }
      ],
      "name": "withdraw",
      "outputs": [],
      "stateMutability": "nonpayable",
      "type": "function"
    },
    {
      "inputs": [],
      "name": "emergencyWithdraw",
      "outputs": [],
      "stateMutability": "nonpayable",
      "type": "function"
    },
    {
      "inputs": [],
      "name": "selfDestruct",
      "outputs": [],
      "stateMutability": "nonpayable",
      "type": "function"
    },
    {
      "inputs": [],
      "name": "stopContract",
      "outputs": [],
      "stateMutability": "nonpayable",
      "type": "function"
    },
    {
      "inputs": [],
      "name": "resumeContract",
      "outputs": [],
      "stateMutability": "nonpayable",
      "type": "function"
    },
    {
      "inputs": [
        {
          "internalType": "bytes16",
          "name": "courseId",
          "type": "bytes16"
        },
        {
          "internalType": "bytes32",
          "name": "proof",
          "type": "bytes32"
        }
      ],
      "name": "purchaseCourse",
      "outputs": [],
      "stateMutability": "payable",
      "type": "function",
      "payable": true
    },
    {
      "inputs": [
        {
          "internalType": "bytes32",
          "name": "courseHash",
          "type": "bytes32"
        }
      ],
      "name": "repurchaseCourse",
      "outputs": [],
      "stateMutability": "payable",
      "type": "function",
      "payable": true
    },
    {
      "inputs": [
        {
          "internalType": "bytes32",
          "name": "courseHash",
          "type": "bytes32"
        }
      ],
      "name": "activateCourse",
      "outputs": [],
      "stateMutability": "nonpayable",
      "type": "function"
    },
    {
      "inputs": [
        {
          "internalType": "bytes32",
          "name": "courseHash",
          "type": "bytes32"
        }
      ],
      "name": "deactivateCourse",
      "outputs": [],
      "stateMutability": "nonpayable",
      "type": "function"
    },
    {
      "inputs": [
        {
          "internalType": "address",
          "name": "newOwner",
          "type": "address"
        }
      ],
      "name": "transferOwnership",
      "outputs": [],
      "stateMutability": "nonpayable",
      "type": "function"
    },
    {
      "inputs": [],
      "name": "getCourseCount",
      "outputs": [
        {
          "internalType": "uint256",
          "name": "",
          "type": "uint256"
        }
      ],
      "stateMutability": "view",
      "type": "function",
      "constant": true
    },
    {
      "inputs": [
        {
          "internalType": "uint256",
          "name": "index",
          "type": "uint256"
        }
      ],
      "name": "getCourseHashAtIndex",
      "outputs": [
        {
          "internalType": "bytes32",
          "name": "",
          "type": "bytes32"
        }
      ],
      "stateMutability": "view",
      "type": "function",
      "constant": true
    },
    {
      "inputs": [
        {
          "internalType": "bytes32",
          "name": "hash",
          "type": "bytes32"
        }
      ],
      "name": "getCourseByHash",
      "outputs": [
        {
          "components": [
            {
              "internalType": "uint256",
              "name": "id",
              "type": "uint256"
            },
            {
              "internalType": "uint256",
              "name": "price",
              "type": "uint256"
            },
            {
              "internalType": "bytes32",
              "name": "proof",
              "type": "bytes32"
            },
            {
              "internalType": "address",
              "name": "owner",
              "type": "address"
            },
            {
              "internalType": "enum CourseMarketplace.State",
              "name": "state",
              "type": "uint8"
            }
          ],
          "internalType": "struct CourseMarketplace.Course",
          "name": "",
          "type": "tuple"
        }
      ],
      "stateMutability": "view",
      "type": "function",
      "constant": true
    },
    {
      "inputs": [],
      "name": "getContractOwner",
      "outputs": [
        {
          "internalType": "address",
          "name": "",
          "type": "address"
        }
      ],
      "stateMutability": "view",
      "type": "function",
      "constant": true
    }
  ],
  "bytecode": "0x608060405260008060006101000a81548160ff02191690831515021790555034801561002a57600080fd5b5061003a3361003f60201b60201c565b610083565b80600460006101000a81548173ffffffffffffffffffffffffffffffffffffffff021916908373ffffffffffffffffffffffffffffffffffffffff16021790555050565b611b67806100926000396000f3fe6080604052600436106100ec5760003560e01c80636d11290b1161008a578063c4bc5da511610059578063c4bc5da5146102b8578063d76821cb146102cf578063db2e21bc146102eb578063f2fde38b14610302576100f3565b80636d11290b14610210578063935d7e6d1461024d57806396cfda06146102765780639cb8a26a146102a1576100f3565b80633f683b6a116100c65780633f683b6a14610161578063442890d51461018c5780636136e1eb146101b757806362e4e6ac146101d3576100f3565b806312253a6c146100f85780632e1a7d4d1461010f5780633926257214610138576100f3565b366100f357005b600080fd5b34801561010457600080fd5b5061010d61032b565b005b34801561011b57600080fd5b50610136600480360381019061013191906115b7565b6103b3565b005b34801561014457600080fd5b5061015f600480360381019061015a919061158e565b6104d6565b005b34801561016d57600080fd5b50610176610700565b60405161018391906117d6565b60405180910390f35b34801561019857600080fd5b506101a1610711565b6040516101ae91906117bb565b60405180910390f35b6101d160048036038101906101cc919061158e565b61073b565b005b3480156101df57600080fd5b506101fa60048036038101906101f5919061158e565b610938565b604051610207919061186c565b60405180910390f35b34801561021c57600080fd5b50610237600480360381019061023291906115b7565b610a60565b60405161024491906117f1565b60405180910390f35b34801561025957600080fd5b50610274600480360381019061026f919061158e565b610a7d565b005b34801561028257600080fd5b5061028b610d8c565b6040516102989190611887565b60405180910390f35b3480156102ad57600080fd5b506102b6610d96565b005b3480156102c457600080fd5b506102cd610e8a565b005b6102e960048036038101906102e49190611552565b610f12565b005b3480156102f757600080fd5b5061030061114d565b005b34801561030e57600080fd5b5061032960048036038101906103249190611529565b6112bc565b005b610333610711565b73ffffffffffffffffffffffffffffffffffffffff163373ffffffffffffffffffffffffffffffffffffffff1614610397576040517f5fc483c500000000000000000000000000000000000000000000000000000000815260040160405180910390fd5b60016000806101000a81548160ff021916908315150217905550565b6103bb610711565b73ffffffffffffffffffffffffffffffffffffffff163373ffffffffffffffffffffffffffffffffffffffff161461041f576040517f5fc483c500000000000000000000000000000000000000000000000000000000815260040160405180910390fd5b6000610429610711565b73ffffffffffffffffffffffffffffffffffffffff168260405161044c906117a6565b60006040518083038185875af1925050503d8060008114610489576040519150601f19603f3d011682016040523d82523d6000602084013e61048e565b606091505b50509050806104d2576040517f08c379a00000000000000000000000000000000000000000000000000000000081526004016104c99061184c565b60405180910390fd5b5050565b6104de610711565b73ffffffffffffffffffffffffffffffffffffffff163373ffffffffffffffffffffffffffffffffffffffff1614610542576040517f5fc483c500000000000000000000000000000000000000000000000000000000815260040160405180910390fd5b60008054906101000a900460ff1615610590576040517f08c379a00000000000000000000000000000000000000000000000000000000081526004016105879061182c565b60405180910390fd5b6000151561059d82611334565b151514156105d7576040517f4db0c48300000000000000000000000000000000000000000000000000000000815260040160405180910390fd5b600060016000838152602001908152602001600020905060006002811115610628577f4e487b7100000000000000000000000000000000000000000000000000000000600052602160045260246000fd5b8160030160149054906101000a900460ff166002811115610672577f4e487b7100000000000000000000000000000000000000000000000000000000600052602160045260246000fd5b146106a9576040517fbaf3f0f700000000000000000000000000000000000000000000000000000000815260040160405180910390fd5b60018160030160146101000a81548160ff021916908360028111156106f7577f4e487b7100000000000000000000000000000000000000000000000000000000600052602160045260246000fd5b02179055505050565b60008054906101000a900460ff1681565b6000600460009054906101000a900473ffffffffffffffffffffffffffffffffffffffff16905090565b60008054906101000a900460ff1615610789576040517f08c379a00000000000000000000000000000000000000000000000000000000081526004016107809061182c565b60405180910390fd5b61079281611334565b6107c8576040517f4db0c48300000000000000000000000000000000000000000000000000000000815260040160405180910390fd5b6107d1816113a3565b610807576040517fcce31cc400000000000000000000000000000000000000000000000000000000815260040160405180910390fd5b6000600160008381526020019081526020016000209050600280811115610857577f4e487b7100000000000000000000000000000000000000000000000000000000600052602160045260246000fd5b8160030160149054906101000a900460ff1660028111156108a1577f4e487b7100000000000000000000000000000000000000000000000000000000600052602160045260246000fd5b146108d8576040517fbaf3f0f700000000000000000000000000000000000000000000000000000000815260040160405180910390fd5b60008160030160146101000a81548160ff02191690836002811115610926577f4e487b7100000000000000000000000000000000000000000000000000000000600052602160045260246000fd5b02179055503481600101819055505050565b610940611455565b600160008381526020019081526020016000206040518060a00160405290816000820154815260200160018201548152602001600282015481526020016003820160009054906101000a900473ffffffffffffffffffffffffffffffffffffffff1673ffffffffffffffffffffffffffffffffffffffff1673ffffffffffffffffffffffffffffffffffffffff1681526020016003820160149054906101000a900460ff166002811115610a1d577f4e487b7100000000000000000000000000000000000000000000000000000000600052602160045260246000fd5b6002811115610a55577f4e487b7100000000000000000000000000000000000000000000000000000000600052602160045260246000fd5b815250509050919050565b600060026000838152602001908152602001600020549050919050565b610a85610711565b73ffffffffffffffffffffffffffffffffffffffff163373ffffffffffffffffffffffffffffffffffffffff1614610ae9576040517f5fc483c500000000000000000000000000000000000000000000000000000000815260040160405180910390fd5b60008054906101000a900460ff1615610b37576040517f08c379a0000000000000000000000000000000000000000000000000000000008152600401610b2e9061182c565b60405180910390fd5b60001515610b4482611334565b15151415610b7e576040517f4db0c48300000000000000000000000000000000000000000000000000000000815260040160405180910390fd5b600060016000838152602001908152602001600020905060006002811115610bcf577f4e487b7100000000000000000000000000000000000000000000000000000000600052602160045260246000fd5b8160030160149054906101000a900460ff166002811115610c19577f4e487b7100000000000000000000000000000000000000000000000000000000600052602160045260246000fd5b14610c50576040517fbaf3f0f700000000000000000000000000000000000000000000000000000000815260040160405180910390fd5b60008160010154905060028260030160146101000a81548160ff02191690836002811115610ca7577f4e487b7100000000000000000000000000000000000000000000000000000000600052602160045260246000fd5b02179055506000826001018190555060008260030160009054906101000a900473ffffffffffffffffffffffffffffffffffffffff1673ffffffffffffffffffffffffffffffffffffffff1682604051610d00906117a6565b60006040518083038185875af1925050503d8060008114610d3d576040519150601f19603f3d011682016040523d82523d6000602084013e610d42565b606091505b5050905080610d86576040517f08c379a0000000000000000000000000000000000000000000000000000000008152600401610d7d9061184c565b60405180910390fd5b50505050565b6000600354905090565b60008054906101000a900460ff16610de3576040517f08c379a0000000000000000000000000000000000000000000000000000000008152600401610dda9061180c565b60405180910390fd5b610deb610711565b73ffffffffffffffffffffffffffffffffffffffff163373ffffffffffffffffffffffffffffffffffffffff1614610e4f576040517f5fc483c500000000000000000000000000000000000000000000000000000000815260040160405180910390fd5b600460009054906101000a900473ffffffffffffffffffffffffffffffffffffffff1673ffffffffffffffffffffffffffffffffffffffff16ff5b610e92610711565b73ffffffffffffffffffffffffffffffffffffffff163373ffffffffffffffffffffffffffffffffffffffff1614610ef6576040517f5fc483c500000000000000000000000000000000000000000000000000000000815260040160405180910390fd5b60008060006101000a81548160ff021916908315150217905550565b60008054906101000a900460ff1615610f60576040517f08c379a0000000000000000000000000000000000000000000000000000000008152600401610f579061182c565b60405180910390fd5b60008233604051602001610f7592919061177a565b604051602081830303815290604052805190602001209050610f96816113a3565b15610fcd576040517fb0fc2d9700000000000000000000000000000000000000000000000000000000815260040160405180910390fd5b600060036000815480929190610fe290611961565b9190505590508160026000838152602001908152602001600020819055506040518060a001604052808281526020013481526020018481526020013373ffffffffffffffffffffffffffffffffffffffff16815260200160006002811115611073577f4e487b7100000000000000000000000000000000000000000000000000000000600052602160045260246000fd5b8152506001600084815260200190815260200160002060008201518160000155602082015181600101556040820151816002015560608201518160030160006101000a81548173ffffffffffffffffffffffffffffffffffffffff021916908373ffffffffffffffffffffffffffffffffffffffff16021790555060808201518160030160146101000a81548160ff0219169083600281111561113f577f4e487b7100000000000000000000000000000000000000000000000000000000600052602160045260246000fd5b021790555090505050505050565b60008054906101000a900460ff1661119a576040517f08c379a00000000000000000000000000000000000000000000000000000000081526004016111919061180c565b60405180910390fd5b6111a2610711565b73ffffffffffffffffffffffffffffffffffffffff163373ffffffffffffffffffffffffffffffffffffffff1614611206576040517f5fc483c500000000000000000000000000000000000000000000000000000000815260040160405180910390fd5b6000611210610711565b73ffffffffffffffffffffffffffffffffffffffff1647604051611233906117a6565b60006040518083038185875af1925050503d8060008114611270576040519150601f19603f3d011682016040523d82523d6000602084013e611275565b606091505b50509050806112b9576040517f08c379a00000000000000000000000000000000000000000000000000000000081526004016112b09061184c565b60405180910390fd5b50565b6112c4610711565b73ffffffffffffffffffffffffffffffffffffffff163373ffffffffffffffffffffffffffffffffffffffff1614611328576040517f5fc483c500000000000000000000000000000000000000000000000000000000815260040160405180910390fd5b61133181611411565b50565b60008073ffffffffffffffffffffffffffffffffffffffff166001600084815260200190815260200160002060030160009054906101000a900473ffffffffffffffffffffffffffffffffffffffff1673ffffffffffffffffffffffffffffffffffffffff1614159050919050565b60003373ffffffffffffffffffffffffffffffffffffffff166001600084815260200190815260200160002060030160009054906101000a900473ffffffffffffffffffffffffffffffffffffffff1673ffffffffffffffffffffffffffffffffffffffff16149050919050565b80600460006101000a81548173ffffffffffffffffffffffffffffffffffffffff021916908373ffffffffffffffffffffffffffffffffffffffff16021790555050565b6040518060a00160405280600081526020016000815260200160008019168152602001600073ffffffffffffffffffffffffffffffffffffffff168152602001600060028111156114cf577f4e487b7100000000000000000000000000000000000000000000000000000000600052602160045260246000fd5b81525090565b6000813590506114e481611ad5565b92915050565b6000813590506114f981611aec565b92915050565b60008135905061150e81611b03565b92915050565b60008135905061152381611b1a565b92915050565b60006020828403121561153b57600080fd5b6000611549848285016114d5565b91505092915050565b6000806040838503121561156557600080fd5b6000611573858286016114ea565b9250506020611584858286016114ff565b9150509250929050565b6000602082840312156115a057600080fd5b60006115ae848285016114ff565b91505092915050565b6000602082840312156115c957600080fd5b60006115d784828501611514565b91505092915050565b6115e9816118be565b82525050565b6115f8816118be565b82525050565b61160f61160a826118be565b6119aa565b82525050565b61161e816118d0565b82525050565b611635611630826118dc565b6119bc565b82525050565b61164481611908565b82525050565b61165381611908565b82525050565b6116628161194f565b82525050565b60006116756014836118ad565b915061168082611a43565b602082019050919050565b60006116986014836118ad565b91506116a382611a6c565b602082019050919050565b60006116bb6000836118a2565b91506116c682611a95565b600082019050919050565b60006116de6010836118ad565b91506116e982611a98565b602082019050919050565b60a08201600082015161170a600085018261175c565b50602082015161171d602085018261175c565b506040820151611730604085018261163b565b50606082015161174360608501826115e0565b5060808201516117566080850182611659565b50505050565b61176581611945565b82525050565b61177481611945565b82525050565b60006117868285611624565b60108201915061179682846115fe565b6014820191508190509392505050565b60006117b1826116ae565b9150819050919050565b60006020820190506117d060008301846115ef565b92915050565b60006020820190506117eb6000830184611615565b92915050565b6000602082019050611806600083018461164a565b92915050565b6000602082019050818103600083015261182581611668565b9050919050565b600060208201905081810360008301526118458161168b565b9050919050565b60006020820190508181036000830152611865816116d1565b9050919050565b600060a08201905061188160008301846116f4565b92915050565b600060208201905061189c600083018461176b565b92915050565b600081905092915050565b600082825260208201905092915050565b60006118c982611925565b9050919050565b60008115159050919050565b60007fffffffffffffffffffffffffffffffff0000000000000000000000000000000082169050919050565b6000819050919050565b600081905061192082611ac1565b919050565b600073ffffffffffffffffffffffffffffffffffffffff82169050919050565b6000819050919050565b600061195a82611912565b9050919050565b600061196c82611945565b91507fffffffffffffffffffffffffffffffffffffffffffffffffffffffffffffffff82141561199f5761199e6119d8565b5b600182019050919050565b60006119b5826119c6565b9050919050565b6000819050919050565b60006119d182611a36565b9050919050565b7f4e487b7100000000000000000000000000000000000000000000000000000000600052601160045260246000fd5b7f4e487b7100000000000000000000000000000000000000000000000000000000600052602160045260246000fd5b60008160601b9050919050565b7f436f6e74726163742069732072756e6e696e672e000000000000000000000000600082015250565b7f436f6e74726163742069732073746f707065642e000000000000000000000000600082015250565b50565b7f5472616e73666572206661696c65642e00000000000000000000000000000000600082015250565b60038110611ad257611ad1611a07565b5b50565b611ade816118be565b8114611ae957600080fd5b50565b611af5816118dc565b8114611b0057600080fd5b50565b611b0c81611908565b8114611b1757600080fd5b50565b611b2381611945565b8114611b2e57600080fd5b5056fea2646970667358221220326aa3ed368717f7c1deb72245243a06c102658eb961aec8e4cfd176f50c688a64736f6c63430008040033",
  "immutableReferences": {},
  "source": "// SPDX-License-Identifier: MIT\r\npragma solidity >=0.4.22 <0.9.0;\r\n\r\ncontract CourseMarketplace {\r\n\r\n    enum State {\r\n        Purchased,\r\n        Activated,\r\n        Deactivated\r\n    }\r\n\r\n    struct Course {\r\n        uint id; // 32\r\n        uint price; // 32\r\n        bytes32 proof; // 32\r\n        address owner; // 20\r\n        State state; // 1\r\n    }\r\n\r\n    bool public isStopped = false;\r\n\r\n    // Mapping of courseHash to Course data\r\n    mapping(bytes32 => Course) private ownedCourses;\r\n\r\n    // mapping of courseID to courseHash\r\n    mapping(uint => bytes32) private ownedCourseHash;\r\n\r\n    // number of all courses + id of the course\r\n    uint private totalOwnedCourses;\r\n\r\n    address payable private owner;\r\n\r\n    constructor() {\r\n        setContractOwner(msg.sender);\r\n    }\r\n\r\n    /// Course has invalid state!\r\n    error InvalidState();\r\n\r\n    /// Course is not created!\r\n    error CourseIsNotCreated();\r\n\r\n    /// Course has already been purchased\r\n    error CourseHasOwner();\r\n\r\n    /// Sender is not the course owner\r\n    error SenderIsNotCourseOwner();\r\n\r\n    /// Caller is not the owner\r\n    error OnlyOwner();\r\n\r\n    modifier onlyOwner() {\r\n        if (msg.sender != getContractOwner())\r\n            revert OnlyOwner();\r\n        _;\r\n    }\r\n\r\n    modifier onlyWhenRunning() {\r\n        require(!isStopped, \"Contract is stopped.\");\r\n        _;\r\n    }\r\n\r\n    modifier onlyWhenStopped() {\r\n        require(isStopped, \"Contract is running.\");\r\n        _;\r\n    }\r\n\r\n    receive() external payable {}\r\n\r\n    function withdraw(uint amount)\r\n        external\r\n        onlyOwner\r\n    {\r\n        (bool success, ) = getContractOwner().call{value: amount}(\"\");\r\n        require(success, \"Transfer failed.\");\r\n    }\r\n\r\n    function emergencyWithdraw()\r\n        external\r\n        onlyWhenStopped\r\n        onlyOwner\r\n    {\r\n        (bool success, ) = getContractOwner().call{value: address(this).balance}(\"\");\r\n        require(success, \"Transfer failed.\");\r\n    }\r\n\r\n    function selfDestruct()\r\n        external\r\n        onlyWhenStopped\r\n        onlyOwner\r\n    {\r\n        selfdestruct(owner);\r\n    }\r\n\r\n    function stopContract() external onlyOwner {\r\n        isStopped = true;\r\n    }\r\n\r\n    function resumeContract() external onlyOwner {\r\n        isStopped = false;\r\n    }\r\n\r\n    function purchaseCourse(\r\n        bytes16 courseId, // 0x00000000000000000000000000003130\r\n        bytes32 proof // 0x0000000000000000000000000000313000000000000000000000000000003130\r\n    ) external payable onlyWhenRunning {\r\n        bytes32 courseHash = keccak256(abi.encodePacked(courseId, msg.sender));\r\n\r\n        if (hasCourseOwnership(courseHash)) {\r\n            revert CourseHasOwner();\r\n        }\r\n\r\n        uint id = totalOwnedCourses++;\r\n\r\n        ownedCourseHash[id] = courseHash;\r\n        ownedCourses[courseHash] = Course({\r\n            id: id,\r\n            price: msg.value,\r\n            proof: proof,\r\n            owner: msg.sender,\r\n            state: State.Purchased\r\n        });\r\n    }\r\n\r\n    function repurchaseCourse(bytes32 courseHash) external payable onlyWhenRunning {\r\n        if (!isCourseCreated(courseHash)) {\r\n            revert CourseIsNotCreated();\r\n        }\r\n\r\n        if (!hasCourseOwnership(courseHash)) {\r\n            revert SenderIsNotCourseOwner();\r\n        }\r\n\r\n        Course storage course = ownedCourses[courseHash];\r\n\r\n        if (course.state != State.Deactivated) {\r\n            revert InvalidState();\r\n        }\r\n\r\n        course.state = State.Purchased;\r\n        course.price = msg.value;\r\n    }\r\n\r\n    function activateCourse(bytes32 courseHash)\r\n        external\r\n        onlyOwner\r\n        onlyWhenRunning\r\n    {\r\n        if (isCourseCreated(courseHash) == false) {\r\n            revert CourseIsNotCreated();\r\n        }\r\n\r\n        Course storage course = ownedCourses[courseHash];\r\n\r\n        if (course.state != State.Purchased) {\r\n            revert InvalidState();\r\n        }\r\n\r\n        course.state = State.Activated;\r\n    }\r\n\r\n    function deactivateCourse(bytes32 courseHash)\r\n        external\r\n        onlyOwner\r\n        onlyWhenRunning\r\n    {\r\n        if (isCourseCreated(courseHash) == false) {\r\n            revert CourseIsNotCreated();\r\n        }\r\n\r\n        Course storage course = ownedCourses[courseHash];\r\n\r\n        if (course.state != State.Purchased) {\r\n            revert InvalidState();\r\n        }\r\n\r\n        uint256 amountToRefund = course.price;\r\n        course.state = State.Deactivated;\r\n        course.price = 0;\r\n\r\n        (bool success, ) = course.owner.call{value: amountToRefund}(\"\");\r\n        require(success, \"Transfer failed.\");\r\n    }\r\n\r\n    function transferOwnership(address newOwner) external onlyOwner {\r\n        setContractOwner(newOwner);\r\n    }\r\n\r\n    function getCourseCount() external view returns(uint) {\r\n        return totalOwnedCourses;\r\n    }\r\n\r\n    function getCourseHashAtIndex(uint index) external view returns(bytes32) {\r\n        return ownedCourseHash[index];\r\n    }\r\n\r\n    function getCourseByHash(bytes32 hash) external view returns(Course memory) {\r\n        return ownedCourses[hash];\r\n    }\r\n\r\n    function getContractOwner() public view returns (address) {\r\n        return owner;\r\n    }\r\n\r\n    function setContractOwner(address newOwner) private {\r\n        owner = payable(newOwner);\r\n    }\r\n\r\n    function isCourseCreated(bytes32 courseHash) private view returns(bool) {\r\n        return ownedCourses[courseHash].owner != address(0);\r\n    }\r\n\r\n    function hasCourseOwnership(bytes32 courseHash) private view returns(bool) {\r\n        return ownedCourses[courseHash].owner == msg.sender;\r\n    }\r\n}\r\n",
  "sourcePath": "C:\\Users\\TriForMine\\IdeaProjects\\solidity\\marketplace-eth\\contracts\\CourseMarketplace.sol",
  "compiler": {
    "name": "solc",
    "version": "0.8.4+commit.c7e474f2.Emscripten.clang"
  },
  "schemaVersion": "3.4.14",
  "updatedAt": "2023-06-08T16:03:02.094Z",
  "networkType": "ethereum",
  "devdoc": {
    "kind": "dev",
    "methods": {},
    "version": 1
  },
  "userdoc": {
    "errors": {
      "CourseHasOwner()": [
        {
          "notice": "Course has already been purchased"
        }
      ],
      "CourseIsNotCreated()": [
        {
          "notice": "Course is not created!"
        }
      ],
      "InvalidState()": [
        {
          "notice": "Course has invalid state!"
        }
      ],
      "OnlyOwner()": [
        {
          "notice": "Caller is not the owner"
        }
      ],
      "SenderIsNotCourseOwner()": [
        {
          "notice": "Sender is not the course owner"
        }
      ]
    },
    "kind": "user",
    "methods": {},
    "version": 1
  }
}